{
  "_format": "hh-sol-artifact-1",
  "contractName": "CrossChainBridgeRouter",
  "sourceName": "contracts/v2/CrossChainBridgeRouter.sol",
  "abi": [
    {
      "inputs": [],
      "name": "InvalidParameter",
      "type": "error"
    },
    {
      "inputs": [],
      "name": "OperationFailed",
      "type": "error"
    },
    {
      "inputs": [],
      "name": "Unauthorized",
      "type": "error"
    },
    {
      "anonymous": false,
      "inputs": [
        {
          "indexed": false,
          "internalType": "address",
          "name": "previousAdmin",
          "type": "address"
        },
        {
          "indexed": false,
          "internalType": "address",
          "name": "newAdmin",
          "type": "address"
        }
      ],
      "name": "AdminChanged",
      "type": "event"
    },
    {
      "anonymous": false,
      "inputs": [
        {
          "indexed": true,
          "internalType": "address",
          "name": "beacon",
          "type": "address"
        }
      ],
      "name": "BeaconUpgraded",
      "type": "event"
    },
    {
      "anonymous": false,
      "inputs": [
        {
          "indexed": false,
          "internalType": "address",
          "name": "changedBy",
          "type": "address"
        },
        {
          "indexed": false,
          "internalType": "address",
          "name": "bridgeChef",
          "type": "address"
        },
        {
          "indexed": false,
          "internalType": "address",
          "name": "bridgeERC20",
          "type": "address"
        },
        {
          "indexed": false,
          "internalType": "address",
          "name": "liquidityManager",
          "type": "address"
        },
        {
          "indexed": false,
          "internalType": "address",
          "name": "bridgeERC721",
          "type": "address"
        },
        {
          "indexed": false,
          "internalType": "address",
          "name": "liquidityMiningPools",
          "type": "address"
        },
        {
          "indexed": false,
          "internalType": "address",
          "name": "rewardPools",
          "type": "address"
        }
      ],
      "name": "ContractAddressesUpgraded",
      "type": "event"
    },
    {
      "anonymous": false,
      "inputs": [
        {
          "indexed": false,
          "internalType": "address",
          "name": "account",
          "type": "address"
        }
      ],
      "name": "Paused",
      "type": "event"
    },
    {
      "anonymous": false,
      "inputs": [
        {
          "indexed": true,
          "internalType": "bytes32",
          "name": "role",
          "type": "bytes32"
        },
        {
          "indexed": true,
          "internalType": "bytes32",
          "name": "previousAdminRole",
          "type": "bytes32"
        },
        {
          "indexed": true,
          "internalType": "bytes32",
          "name": "newAdminRole",
          "type": "bytes32"
        }
      ],
      "name": "RoleAdminChanged",
      "type": "event"
    },
    {
      "anonymous": false,
      "inputs": [
        {
          "indexed": true,
          "internalType": "bytes32",
          "name": "role",
          "type": "bytes32"
        },
        {
          "indexed": true,
          "internalType": "address",
          "name": "account",
          "type": "address"
        },
        {
          "indexed": true,
          "internalType": "address",
          "name": "sender",
          "type": "address"
        }
      ],
      "name": "RoleGranted",
      "type": "event"
    },
    {
      "anonymous": false,
      "inputs": [
        {
          "indexed": true,
          "internalType": "bytes32",
          "name": "role",
          "type": "bytes32"
        },
        {
          "indexed": true,
          "internalType": "address",
          "name": "account",
          "type": "address"
        },
        {
          "indexed": true,
          "internalType": "address",
          "name": "sender",
          "type": "address"
        }
      ],
      "name": "RoleRevoked",
      "type": "event"
    },
    {
      "anonymous": false,
      "inputs": [
        {
          "indexed": false,
          "internalType": "address",
          "name": "account",
          "type": "address"
        }
      ],
      "name": "Unpaused",
      "type": "event"
    },
    {
      "anonymous": false,
      "inputs": [
        {
          "indexed": true,
          "internalType": "address",
          "name": "implementation",
          "type": "address"
        }
      ],
      "name": "Upgraded",
      "type": "event"
    },
    {
      "inputs": [],
      "name": "DEFAULT_ADMIN_ROLE",
      "outputs": [
        {
          "internalType": "bytes32",
          "name": "",
          "type": "bytes32"
        }
      ],
      "stateMutability": "view",
      "type": "function"
    },
    {
      "inputs": [],
      "name": "MANAGE_CONTRACTS_ROLE",
      "outputs": [
        {
          "internalType": "bytes32",
          "name": "",
          "type": "bytes32"
        }
      ],
      "stateMutability": "view",
      "type": "function"
    },
    {
      "inputs": [],
      "name": "MANAGE_UPGRADES_ROLE",
      "outputs": [
        {
          "internalType": "bytes32",
          "name": "",
          "type": "bytes32"
        }
      ],
      "stateMutability": "view",
      "type": "function"
    },
    {
      "inputs": [],
      "name": "ONLY_ROUTER",
      "outputs": [
        {
          "internalType": "bytes32",
          "name": "",
          "type": "bytes32"
        }
      ],
      "stateMutability": "view",
      "type": "function"
    },
    {
      "inputs": [],
      "name": "PAUSABILITY_PAUSE_ROLE",
      "outputs": [
        {
          "internalType": "bytes32",
          "name": "",
          "type": "bytes32"
        }
      ],
      "stateMutability": "view",
      "type": "function"
    },
    {
      "inputs": [],
      "name": "PAUSABILITY_UNPAUSE_ROLE",
      "outputs": [
        {
          "internalType": "bytes32",
          "name": "",
          "type": "bytes32"
        }
      ],
      "stateMutability": "view",
      "type": "function"
    },
    {
      "inputs": [],
      "name": "PPM_DIVISOR",
      "outputs": [
        {
          "internalType": "uint256",
          "name": "",
          "type": "uint256"
        }
      ],
      "stateMutability": "view",
      "type": "function"
    },
    {
      "inputs": [
        {
          "internalType": "address",
          "name": "sourceNetworkTokenAddress",
          "type": "address"
        },
        {
          "internalType": "address",
          "name": "targetTokenAddress",
          "type": "address"
        }
      ],
      "name": "addERC20TokenContractMapping",
      "outputs": [],
      "stateMutability": "payable",
      "type": "function"
    },
    {
      "inputs": [
        {
          "internalType": "address",
          "name": "sourceNetworkCollectionAddress",
          "type": "address"
        },
        {
          "internalType": "address",
          "name": "targetCollectionAddress",
          "type": "address"
        }
      ],
      "name": "addERC721CollectionAddressMapping",
      "outputs": [],
      "stateMutability": "payable",
      "type": "function"
    },
    {
      "inputs": [
        {
          "internalType": "address",
          "name": "collectionAddress",
          "type": "address"
        }
      ],
      "name": "addERC721CollectionToWhitelist",
      "outputs": [],
      "stateMutability": "payable",
      "type": "function"
    },
    {
      "inputs": [
        {
          "internalType": "contract IERC20",
          "name": "token",
          "type": "address"
        },
        {
          "internalType": "uint256",
          "name": "amount",
          "type": "uint256"
        }
      ],
      "name": "addLiquidityERC20",
      "outputs": [],
      "stateMutability": "payable",
      "type": "function"
    },
    {
      "inputs": [
        {
          "internalType": "uint256",
          "name": "amount",
          "type": "uint256"
        }
      ],
      "name": "addLiquidityNative",
      "outputs": [],
      "stateMutability": "payable",
      "type": "function"
    },
    {
      "inputs": [],
      "name": "bridgeChef",
      "outputs": [
        {
          "internalType": "address",
          "name": "",
          "type": "address"
        }
      ],
      "stateMutability": "view",
      "type": "function"
    },
    {
      "inputs": [],
      "name": "bridgeERC20",
      "outputs": [
        {
          "internalType": "address",
          "name": "",
          "type": "address"
        }
      ],
      "stateMutability": "view",
      "type": "function"
    },
    {
      "inputs": [],
      "name": "bridgeERC721",
      "outputs": [
        {
          "internalType": "address",
          "name": "",
          "type": "address"
        }
      ],
      "stateMutability": "view",
      "type": "function"
    },
    {
      "inputs": [
        {
          "internalType": "address",
          "name": "tokenAddress",
          "type": "address"
        },
        {
          "internalType": "bool",
          "name": "createLiquidityPool",
          "type": "bool"
        },
        {
          "internalType": "bool",
          "name": "createMiningPool",
          "type": "bool"
        },
        {
          "internalType": "bool",
          "name": "createRewardPool",
          "type": "bool"
        }
      ],
      "name": "createPools",
      "outputs": [],
      "stateMutability": "payable",
      "type": "function"
    },
    {
      "inputs": [
        {
          "internalType": "contract IERC20",
          "name": "token",
          "type": "address"
        },
        {
          "internalType": "uint256",
          "name": "amount",
          "type": "uint256"
        },
        {
          "internalType": "address",
          "name": "receiverAddress",
          "type": "address"
        },
        {
          "internalType": "uint256",
          "name": "targetChainId",
          "type": "uint256"
        }
      ],
      "name": "depositERC20TokensToBridge",
      "outputs": [],
      "stateMutability": "payable",
      "type": "function"
    },
    {
      "inputs": [
        {
          "internalType": "address",
          "name": "collectionAddress",
          "type": "address"
        },
        {
          "internalType": "uint256",
          "name": "tokenId",
          "type": "uint256"
        },
        {
          "internalType": "address",
          "name": "receiverAddress",
          "type": "address"
        },
        {
          "internalType": "uint256",
          "name": "targetChainId",
          "type": "uint256"
        }
      ],
      "name": "depositERC721TokenToBridge",
      "outputs": [],
      "stateMutability": "payable",
      "type": "function"
    },
    {
      "inputs": [
        {
          "internalType": "uint256",
          "name": "amount",
          "type": "uint256"
        },
        {
          "internalType": "address",
          "name": "receiverAddress",
          "type": "address"
        },
        {
          "internalType": "uint256",
          "name": "targetChainId",
          "type": "uint256"
        }
      ],
      "name": "depositNativeTokensToBridge",
      "outputs": [],
      "stateMutability": "payable",
      "type": "function"
    },
    {
      "inputs": [],
      "name": "getChainID",
      "outputs": [
        {
          "internalType": "uint256",
          "name": "",
          "type": "uint256"
        }
      ],
      "stateMutability": "view",
      "type": "function"
    },
    {
      "inputs": [
        {
          "internalType": "address",
          "name": "tokenAddress",
          "type": "address"
        },
        {
          "internalType": "uint256",
          "name": "amountToBeBridged",
          "type": "uint256"
        }
      ],
      "name": "getERC20BridgeFeeQuote",
      "outputs": [
        {
          "internalType": "uint256",
          "name": "bridgeFee",
          "type": "uint256"
        }
      ],
      "stateMutability": "view",
      "type": "function"
    },
    {
      "inputs": [
        {
          "internalType": "address",
          "name": "collectionAddress",
          "type": "address"
        }
      ],
      "name": "getERC721BridgeFeeQuote",
      "outputs": [
        {
          "internalType": "uint256",
          "name": "bridgeFee",
          "type": "uint256"
        }
      ],
      "stateMutability": "view",
      "type": "function"
    },
    {
      "inputs": [
        {
          "internalType": "address",
          "name": "tokenAddress",
          "type": "address"
        }
      ],
      "name": "getLPToken",
      "outputs": [
        {
          "internalType": "address",
          "name": "",
          "type": "address"
        }
      ],
      "stateMutability": "view",
      "type": "function"
    },
    {
      "inputs": [
        {
          "internalType": "contract IERC20",
          "name": "token",
          "type": "address"
        },
        {
          "internalType": "uint256",
          "name": "withdrawalAmount",
          "type": "uint256"
        }
      ],
      "name": "getLiquidityWithdrawalFeeAmount",
      "outputs": [
        {
          "internalType": "uint256",
          "name": "",
          "type": "uint256"
        }
      ],
      "stateMutability": "view",
      "type": "function"
    },
    {
      "inputs": [
        {
          "internalType": "bytes32",
          "name": "role",
          "type": "bytes32"
        }
      ],
      "name": "getRoleAdmin",
      "outputs": [
        {
          "internalType": "bytes32",
          "name": "",
          "type": "bytes32"
        }
      ],
      "stateMutability": "view",
      "type": "function"
    },
    {
      "inputs": [
        {
          "internalType": "bytes32",
          "name": "role",
          "type": "bytes32"
        },
        {
          "internalType": "address",
          "name": "account",
          "type": "address"
        }
      ],
      "name": "grantRole",
      "outputs": [],
      "stateMutability": "nonpayable",
      "type": "function"
    },
    {
      "inputs": [
        {
          "internalType": "uint256",
          "name": "farmId",
          "type": "uint256"
        }
      ],
      "name": "harvestFarmRewards",
      "outputs": [],
      "stateMutability": "payable",
      "type": "function"
    },
    {
      "inputs": [
        {
          "internalType": "address",
          "name": "tokenAddress",
          "type": "address"
        },
        {
          "internalType": "address",
          "name": "stakerAddress",
          "type": "address"
        }
      ],
      "name": "harvestFromMiningPool",
      "outputs": [],
      "stateMutability": "payable",
      "type": "function"
    },
    {
      "inputs": [
        {
          "internalType": "address",
          "name": "tokenAddress",
          "type": "address"
        },
        {
          "internalType": "address",
          "name": "stakerAddress",
          "type": "address"
        }
      ],
      "name": "harvestFromRewardPool",
      "outputs": [],
      "stateMutability": "payable",
      "type": "function"
    },
    {
      "inputs": [
        {
          "internalType": "bytes32",
          "name": "role",
          "type": "bytes32"
        },
        {
          "internalType": "address",
          "name": "account",
          "type": "address"
        }
      ],
      "name": "hasRole",
      "outputs": [
        {
          "internalType": "bool",
          "name": "",
          "type": "bool"
        }
      ],
      "stateMutability": "view",
      "type": "function"
    },
    {
      "inputs": [
        {
          "internalType": "address",
          "name": "bridgeChefAddress",
          "type": "address"
        },
        {
          "internalType": "address",
          "name": "bridgeERC20Address",
          "type": "address"
        },
        {
          "internalType": "address",
          "name": "liquidityManagerAddress",
          "type": "address"
        },
        {
          "internalType": "address",
          "name": "bridgeERC721Address",
          "type": "address"
        },
        {
          "internalType": "address",
          "name": "rewardPoolsAddress",
          "type": "address"
        },
        {
          "internalType": "address",
          "name": "miningPoolsAddress",
          "type": "address"
        }
      ],
      "name": "initialize",
      "outputs": [],
      "stateMutability": "nonpayable",
      "type": "function"
    },
    {
      "inputs": [],
      "name": "liquidityManager",
      "outputs": [
        {
          "internalType": "address",
          "name": "",
          "type": "address"
        }
      ],
      "stateMutability": "view",
      "type": "function"
    },
    {
      "inputs": [],
      "name": "liquidityMiningPools",
      "outputs": [
        {
          "internalType": "address",
          "name": "",
          "type": "address"
        }
      ],
      "stateMutability": "view",
      "type": "function"
    },
    {
      "inputs": [],
      "name": "pause",
      "outputs": [],
      "stateMutability": "nonpayable",
      "type": "function"
    },
    {
      "inputs": [],
      "name": "paused",
      "outputs": [
        {
          "internalType": "bool",
          "name": "",
          "type": "bool"
        }
      ],
      "stateMutability": "view",
      "type": "function"
    },
    {
      "inputs": [
        {
          "internalType": "uint256",
          "name": "farmId",
          "type": "uint256"
        },
        {
          "internalType": "address",
          "name": "user",
          "type": "address"
        }
      ],
      "name": "pendingFarmRewards",
      "outputs": [
        {
          "internalType": "uint256",
          "name": "",
          "type": "uint256"
        }
      ],
      "stateMutability": "view",
      "type": "function"
    },
    {
      "inputs": [
        {
          "internalType": "address",
          "name": "tokenAddress",
          "type": "address"
        },
        {
          "internalType": "address",
          "name": "stakerAddress",
          "type": "address"
        }
      ],
      "name": "pendingMiningPoolRewards",
      "outputs": [
        {
          "internalType": "uint256",
          "name": "",
          "type": "uint256"
        }
      ],
      "stateMutability": "view",
      "type": "function"
    },
    {
      "inputs": [
        {
          "internalType": "address",
          "name": "tokenAddress",
          "type": "address"
        },
        {
          "internalType": "address",
          "name": "stakerAddress",
          "type": "address"
        }
      ],
      "name": "pendingRewardPoolRewards",
      "outputs": [
        {
          "internalType": "uint256",
          "name": "",
          "type": "uint256"
        }
      ],
      "stateMutability": "view",
      "type": "function"
    },
    {
      "inputs": [],
      "name": "proxiableUUID",
      "outputs": [
        {
          "internalType": "bytes32",
          "name": "",
          "type": "bytes32"
        }
      ],
      "stateMutability": "view",
      "type": "function"
    },
    {
      "inputs": [
        {
          "internalType": "uint8[]",
          "name": "sigV",
          "type": "uint8[]"
        },
        {
          "internalType": "bytes32[]",
          "name": "sigR",
          "type": "bytes32[]"
        },
        {
          "internalType": "bytes32[]",
          "name": "sigS",
          "type": "bytes32[]"
        },
        {
          "internalType": "address",
          "name": "receiverAddress",
          "type": "address"
        },
        {
          "internalType": "address",
          "name": "sourceNetworkTokenAddress",
          "type": "address"
        },
        {
          "internalType": "uint256",
          "name": "amount",
          "type": "uint256"
        },
        {
          "internalType": "uint256",
          "name": "depositChainId",
          "type": "uint256"
        },
        {
          "internalType": "uint256",
          "name": "depositNumber",
          "type": "uint256"
        }
      ],
      "name": "releaseERC20TokenBridgeDeposit",
      "outputs": [],
      "stateMutability": "payable",
      "type": "function"
    },
    {
      "inputs": [
        {
          "internalType": "uint8[]",
          "name": "sigV",
          "type": "uint8[]"
        },
        {
          "internalType": "bytes32[]",
          "name": "sigR",
          "type": "bytes32[]"
        },
        {
          "internalType": "bytes32[]",
          "name": "sigS",
          "type": "bytes32[]"
        },
        {
          "internalType": "address",
          "name": "receiverAddress",
          "type": "address"
        },
        {
          "internalType": "address",
          "name": "sourceNetworkCollectionAddress",
          "type": "address"
        },
        {
          "internalType": "uint256",
          "name": "tokenId",
          "type": "uint256"
        },
        {
          "internalType": "uint256",
          "name": "depositChainId",
          "type": "uint256"
        },
        {
          "internalType": "uint256",
          "name": "depositNumber",
          "type": "uint256"
        }
      ],
      "name": "releaseERC721TokenDeposit",
      "outputs": [],
      "stateMutability": "payable",
      "type": "function"
    },
    {
      "inputs": [
        {
          "internalType": "uint8[]",
          "name": "sigV",
          "type": "uint8[]"
        },
        {
          "internalType": "bytes32[]",
          "name": "sigR",
          "type": "bytes32[]"
        },
        {
          "internalType": "bytes32[]",
          "name": "sigS",
          "type": "bytes32[]"
        },
        {
          "internalType": "address",
          "name": "receiverAddress",
          "type": "address"
        },
        {
          "internalType": "address",
          "name": "sourceNetworkTokenAddress",
          "type": "address"
        },
        {
          "internalType": "uint256",
          "name": "amount",
          "type": "uint256"
        },
        {
          "internalType": "uint256",
          "name": "depositChainId",
          "type": "uint256"
        },
        {
          "internalType": "uint256",
          "name": "depositNumber",
          "type": "uint256"
        }
      ],
      "name": "releaseNativeTokenBridgeDeposit",
      "outputs": [],
      "stateMutability": "payable",
      "type": "function"
    },
    {
      "inputs": [
        {
          "internalType": "address",
          "name": "sourceNetworkTokenAddress",
          "type": "address"
        }
      ],
      "name": "removeERC20TokenContractMapping",
      "outputs": [],
      "stateMutability": "payable",
      "type": "function"
    },
    {
      "inputs": [
        {
          "internalType": "address",
          "name": "sourceNetworkCollectionAddress",
          "type": "address"
        }
      ],
      "name": "removeERC721CollectionAddressMapping",
      "outputs": [],
      "stateMutability": "payable",
      "type": "function"
    },
    {
      "inputs": [
        {
          "internalType": "address",
          "name": "collectionAddress",
          "type": "address"
        }
      ],
      "name": "removeERC721CollectionFromWhitelist",
      "outputs": [],
      "stateMutability": "payable",
      "type": "function"
    },
    {
      "inputs": [
        {
          "internalType": "bytes32",
          "name": "role",
          "type": "bytes32"
        },
        {
          "internalType": "address",
          "name": "account",
          "type": "address"
        }
      ],
      "name": "renounceRole",
      "outputs": [],
      "stateMutability": "nonpayable",
      "type": "function"
    },
    {
      "inputs": [
        {
          "internalType": "bytes32",
          "name": "role",
          "type": "bytes32"
        },
        {
          "internalType": "address",
          "name": "account",
          "type": "address"
        }
      ],
      "name": "revokeRole",
      "outputs": [],
      "stateMutability": "nonpayable",
      "type": "function"
    },
    {
      "inputs": [
        {
          "internalType": "address",
          "name": "tokenAddress",
          "type": "address"
        }
      ],
      "name": "rewardPoolWithdrawalFee",
      "outputs": [
        {
          "internalType": "uint256",
          "name": "",
          "type": "uint256"
        }
      ],
      "stateMutability": "view",
      "type": "function"
    },
    {
      "inputs": [],
      "name": "rewardPools",
      "outputs": [
        {
          "internalType": "address",
          "name": "",
          "type": "address"
        }
      ],
      "stateMutability": "view",
      "type": "function"
    },
    {
      "inputs": [
        {
          "internalType": "address",
          "name": "bridgeChefAddress",
          "type": "address"
        },
        {
          "internalType": "address",
          "name": "bridgeERC20Address",
          "type": "address"
        },
        {
          "internalType": "address",
          "name": "liquidityManagerAddress",
          "type": "address"
        },
        {
          "internalType": "address",
          "name": "bridgeERC721Address",
          "type": "address"
        },
        {
          "internalType": "address",
          "name": "miningPoolsAddress",
          "type": "address"
        },
        {
          "internalType": "address",
          "name": "rewardPoolsAddress",
          "type": "address"
        }
      ],
      "name": "setContracts",
      "outputs": [],
      "stateMutability": "payable",
      "type": "function"
    },
    {
      "inputs": [
        {
          "internalType": "address",
          "name": "tokenAddress",
          "type": "address"
        },
        {
          "internalType": "uint256",
          "name": "amount",
          "type": "uint256"
        }
      ],
      "name": "stakeBRIDGEInRewardPool",
      "outputs": [],
      "stateMutability": "payable",
      "type": "function"
    },
    {
      "inputs": [
        {
          "internalType": "uint256",
          "name": "farmId",
          "type": "uint256"
        },
        {
          "internalType": "uint256",
          "name": "amount",
          "type": "uint256"
        }
      ],
      "name": "stakeLpTokensInFarm",
      "outputs": [],
      "stateMutability": "payable",
      "type": "function"
    },
    {
      "inputs": [
        {
          "internalType": "address",
          "name": "tokenAddress",
          "type": "address"
        },
        {
          "internalType": "uint256",
          "name": "amount",
          "type": "uint256"
        }
      ],
      "name": "stakeLpTokensInMiningPool",
      "outputs": [],
      "stateMutability": "payable",
      "type": "function"
    },
    {
      "inputs": [
        {
          "internalType": "bytes4",
          "name": "interfaceId",
          "type": "bytes4"
        }
      ],
      "name": "supportsInterface",
      "outputs": [
        {
          "internalType": "bool",
          "name": "",
          "type": "bool"
        }
      ],
      "stateMutability": "view",
      "type": "function"
    },
    {
      "inputs": [],
      "name": "unpause",
      "outputs": [],
      "stateMutability": "nonpayable",
      "type": "function"
    },
    {
      "inputs": [
        {
          "internalType": "address",
          "name": "tokenAddress",
          "type": "address"
        },
        {
          "internalType": "uint256",
          "name": "amount",
          "type": "uint256"
        }
      ],
      "name": "unstakeBRIDGEFromRewardPool",
      "outputs": [],
      "stateMutability": "payable",
      "type": "function"
    },
    {
      "inputs": [
        {
          "internalType": "uint256",
          "name": "farmId",
          "type": "uint256"
        },
        {
          "internalType": "uint256",
          "name": "amount",
          "type": "uint256"
        }
      ],
      "name": "unstakeLpTokensFromFarm",
      "outputs": [],
      "stateMutability": "payable",
      "type": "function"
    },
    {
      "inputs": [
        {
          "internalType": "address",
          "name": "tokenAddress",
          "type": "address"
        },
        {
          "internalType": "uint256",
          "name": "amount",
          "type": "uint256"
        }
      ],
      "name": "unstakeLpTokensFromMiningPool",
      "outputs": [],
      "stateMutability": "payable",
      "type": "function"
    },
    {
      "inputs": [
        {
          "internalType": "address",
          "name": "newImplementation",
          "type": "address"
        }
      ],
      "name": "upgradeTo",
      "outputs": [],
      "stateMutability": "nonpayable",
      "type": "function"
    },
    {
      "inputs": [
        {
          "internalType": "address",
          "name": "newImplementation",
          "type": "address"
        },
        {
          "internalType": "bytes",
          "name": "data",
          "type": "bytes"
        }
      ],
      "name": "upgradeToAndCall",
      "outputs": [],
      "stateMutability": "payable",
      "type": "function"
    },
    {
      "inputs": [
        {
          "internalType": "contract IERC20",
          "name": "token",
          "type": "address"
        },
        {
          "internalType": "uint256",
          "name": "amount",
          "type": "uint256"
        }
      ],
      "name": "withdrawLiquidityERC20",
      "outputs": [],
      "stateMutability": "payable",
      "type": "function"
    },
    {
      "inputs": [
        {
          "internalType": "contract IERC20",
          "name": "token",
          "type": "address"
        },
        {
          "internalType": "uint256",
          "name": "amount",
          "type": "uint256"
        },
        {
          "internalType": "address",
          "name": "receiverAddress",
          "type": "address"
        },
        {
          "internalType": "uint256",
          "name": "targetChainId",
          "type": "uint256"
        }
      ],
      "name": "withdrawLiquidityInAnotherNetwork",
      "outputs": [],
      "stateMutability": "payable",
      "type": "function"
    },
    {
      "inputs": [
        {
          "internalType": "uint256",
          "name": "amount",
          "type": "uint256"
        }
      ],
      "name": "withdrawLiquidityNative",
      "outputs": [],
      "stateMutability": "payable",
      "type": "function"
    },
    {
      "inputs": [],
      "name": "wrappedNative",
      "outputs": [
        {
          "internalType": "address",
          "name": "",
          "type": "address"
        }
      ],
      "stateMutability": "view",
      "type": "function"
    },
    {
      "stateMutability": "payable",
      "type": "receive"
    }
  ],
  "bytecode": "0x60a06040523060601b60805234801561001757600080fd5b5060805160601c614b1061005260003960008181611265015281816112a501528181611975015281816119b50152611b2e0152614b106000f3fe6080604052600436106103475760003560e01c806361c53c37116101b2578063bb8f9bc6116100ed578063df4e23aa11610090578063df4e23aa146109a5578063dfac26bc146109b8578063e00a906c146109d8578063e30cb9ad146109eb578063e850044c146109fe578063eb6d3a1114610a11578063f71982b914610a26578063f71db54314610a3957600080fd5b8063bb8f9bc6146108d9578063c26e83ac146108ec578063cc2a9a5b1461090c578063ce0414ce1461092c578063cfd195f71461094c578063d547741f1461095f578063d7c983b01461097f578063dedde8091461099257600080fd5b80638d9ee6cc116101555780638d9ee6cc1461082157806391d14854146108345780639bca7683146108545780639ec1ef25146108675780639feea6db1461087a578063a217fddf1461089a578063a3f2c75a146108af578063b766d386146108c657600080fd5b806361c53c371461073d578063747e9c641461075d5780637b8b228b1461077e5780637c29969e146107915780638456cb59146107a45780638b6a00c8146107b95780638bc51607146107cc5780638c29e5b8146107ed57600080fd5b806334009748116102825780634c42421d116102255780634c42421d146106915780634c77c0fe146106a45780634f1ef286146106b75780634fc99ed6146106ca57806350f936be146106ea57806352d1902d146106fd578063564b81ef146107125780635c975abb1461072557600080fd5b806334009748146105c157806336568abe146105d45780633659cfe6146105f45780633f4ba83a146106145780634267f0411461062957806343cbfb2a146106495780634525020c1461066b578063472227311461067e57600080fd5b806322a6da3e116102ea57806322a6da3e146104c55780632463a55a146104e6578063248a9ca3146104f95780632584041a146105295780632c480d551461054b5780632e732df31461055e5780632f2ff15d1461058057806333827438146105a057600080fd5b806301ffc9a7146103c457806302d90385146103f9578063063c8ca51461042757806307c6ebf01461043c5780630b2047a71461044f5780630b533d3c1461047f57806315496ef51461049257806321618543146104a557600080fd5b366103bf5760405162461bcd60e51b815260206004820152603f60248201527f446f206e6f742073656e6420796f7572206d6f6e65792068657265206f72207760448201527f652077696c6c206275792063686f636f6c6174652066726f6d206974203a290060648201526084015b60405180910390fd5b600080fd5b3480156103d057600080fd5b506103e46103df3660046143cb565b610a5a565b60405190151581526020015b60405180910390f35b34801561040557600080fd5b506101635461041a906001600160a01b031681565b6040516103f09190614545565b61043a6104353660046141fa565b610a91565b005b61043a61044a366004614377565b610b1e565b34801561045b57600080fd5b50610471600080516020614a7483398151915281565b6040519081526020016103f0565b61043a61048d36600461426c565b610c14565b61043a6104a0366004614377565b610cb2565b3480156104b157600080fd5b506104716104c036600461400c565b610d20565b3480156104d157600080fd5b5061015f5461041a906001600160a01b031681565b61043a6104f436600461407c565b610e45565b34801561050557600080fd5b50610471610514366004614377565b60009081526065602052604090206001015490565b34801561053557600080fd5b50610471600080516020614a1483398151915281565b61043a6105593660046140fd565b610ff6565b34801561056a57600080fd5b50610471600080516020614a3483398151915281565b34801561058c57600080fd5b5061043a61059b3660046143a7565b61115b565b3480156105ac57600080fd5b506101615461041a906001600160a01b031681565b61043a6105cf36600461442a565b611186565b3480156105e057600080fd5b5061043a6105ef3660046143a7565b6111dc565b34801561060057600080fd5b5061043a61060f36600461400c565b61125a565b34801561062057600080fd5b5061043a611323565b34801561063557600080fd5b5061047161064436600461400c565b611383565b34801561065557600080fd5b50610471600080516020614abb83398151915281565b61043a610679366004614225565b611462565b61043a61068c36600461442a565b61166f565b61043a61069f36600461400c565b6117d0565b61043a6106b23660046141fa565b6118c5565b61043a6106c5366004614158565b61196a565b3480156106d657600080fd5b5061041a6106e536600461400c565b611a20565b61043a6106f836600461426c565b611abf565b34801561070957600080fd5b50610471611b21565b34801561071e57600080fd5b5046610471565b34801561073157600080fd5b5060975460ff166103e4565b34801561074957600080fd5b506104716107583660046143a7565b611bcf565b34801561076957600080fd5b506101605461041a906001600160a01b031681565b61043a61078c366004614044565b611c56565b61043a61079f36600461400c565b611cac565b3480156107b057600080fd5b5061043a611e51565b61043a6107c736600461400c565b611eb0565b3480156107d857600080fd5b506101625461041a906001600160a01b031681565b3480156107f957600080fd5b506104717f417ac99bb78ea63cfd228982d0c6cd6719696a044749f4aba488a1d56da918fa81565b61043a61082f3660046141fa565b611fa5565b34801561084057600080fd5b506103e461084f3660046143a7565b612090565b61043a61086236600461426c565b6120bb565b61043a610875366004614225565b61215b565b34801561088657600080fd5b50610471610895366004614044565b612406565b3480156108a657600080fd5b50610471600081565b3480156108bb57600080fd5b50610471620f424081565b61043a6108d43660046141fa565b61243a565b61043a6108e73660046143f3565b612475565b3480156108f857600080fd5b506104716109073660046141fa565b6124ef565b34801561091857600080fd5b5061043a61092736600461407c565b612523565b34801561093857600080fd5b50610471610947366004614044565b61262e565b61043a61095a3660046141fa565b612662565b34801561096b57600080fd5b5061043a61097a3660046143a7565b612869565b61043a61098d366004614044565b61288f565b61043a6109a0366004614377565b612a2f565b61043a6109b3366004614225565b612a6a565b3480156109c457600080fd5b506104716109d33660046141fa565b612c67565b61043a6109e6366004614044565b612da9565b61043a6109f9366004614044565b612dff565b61043a610a0c36600461400c565b612fa2565b348015610a1d57600080fd5b5061041a613142565b61043a610a343660046141fa565b6131c5565b348015610a4557600080fd5b506101645461041a906001600160a01b031681565b60006001600160e01b03198216637965db0b60e01b1480610a8b57506301ffc9a760e01b6001600160e01b03198316145b92915050565b60975460ff1615610ab45760405162461bcd60e51b81526004016103b6906147c4565b610163546001600160a01b03166360829f8a335b84846040518463ffffffff1660e01b8152600401610ae893929190614597565b600060405180830381600087803b158015610b0257600080fd5b505af1158015610b16573d6000803e3d6000fd5b505050505050565b60975460ff1615610b415760405162461bcd60e51b81526004016103b6906147c4565b610b4c6106e5613142565b6001600160a01b03166379cc679033836040518363ffffffff1660e01b8152600401610b799291906145bb565b600060405180830381600087803b158015610b9357600080fd5b505af1158015610ba7573d6000803e3d6000fd5b5050610161546001600160a01b03169150636aeb362b9050335b836040518363ffffffff1660e01b8152600401610bdf9291906145bb565b600060405180830381600087803b158015610bf957600080fd5b505af1158015610c0d573d6000803e3d6000fd5b5050505050565b60975460ff1615610c375760405162461bcd60e51b81526004016103b6906147c4565b6101605460405163929abe4360e01b81526001600160a01b039091169063929abe4390610c76908b908b908b908b908b908b908b908b9060040161461f565b600060405180830381600087803b158015610c9057600080fd5b505af1158015610ca4573d6000803e3d6000fd5b505050505050505050505050565b60975460ff1615610cd55760405162461bcd60e51b81526004016103b6906147c4565b610161546001600160a01b03166354a871cf3433846040518463ffffffff1660e01b8152600401610d079291906145bb565b6000604051808303818588803b158015610b0257600080fd5b61016454604051630265391960e61b815260009182916001600160a01b039091169063994e464090610d56908690600401614545565b60206040518083038186803b158015610d6e57600080fd5b505afa158015610d82573d6000803e3d6000fd5b505050506040513d601f19601f82011682018060405250810190610da6919061438f565b905060008111610e3c5761016460009054906101000a90046001600160a01b03166001600160a01b031663d440e7716040518163ffffffff1660e01b815260040160206040518083038186803b158015610dff57600080fd5b505afa158015610e13573d6000803e3d6000fd5b505050506040513d601f19601f82011682018060405250810190610e37919061438f565b610e3e565b805b9392505050565b610e5d600080516020614a7483398151915233612090565b610e79576040516282b42960e81b815260040160405180910390fd5b6001600160a01b03861615610ea55761015f80546001600160a01b0319166001600160a01b0388161790555b6001600160a01b03851615610ed15761016080546001600160a01b0319166001600160a01b0387161790555b6001600160a01b03841615610efd5761016180546001600160a01b0319166001600160a01b0386161790555b6001600160a01b03831615610f295761016280546001600160a01b0319166001600160a01b0385161790555b6001600160a01b03821615610f555761016380546001600160a01b0319166001600160a01b0384161790555b6001600160a01b03811615610f815761016480546001600160a01b0319166001600160a01b0383161790555b61015f54604080513381526001600160a01b039283166020820152878316818301528683166060820152858316608082015284831660a082015291831660c0830152517fe3f154d445055687d73997eb8a165ce05f7b82baf2586116468b9ee08d57279f9181900360e00190a1505050505050565b82156110815761016154604051634824fce960e11b81526001600160a01b0390911690639049f9d29061102d908790600401614545565b602060405180830381600087803b15801561104757600080fd5b505af115801561105b573d6000803e3d6000fd5b505050506040513d601f19601f8201168201806040525081019061107f919061432d565b505b81156110eb5761016354604051634824fce960e11b81526001600160a01b0390911690639049f9d2906110b8908790600401614545565b600060405180830381600087803b1580156110d257600080fd5b505af11580156110e6573d6000803e3d6000fd5b505050505b80156111555761016454604051634824fce960e11b81526001600160a01b0390911690639049f9d290611122908790600401614545565b600060405180830381600087803b15801561113c57600080fd5b505af1158015611150573d6000803e3d6000fd5b505050505b50505050565b6000828152606560205260409020600101546111778133613304565b6111818383613368565b505050565b60975460ff16156111a95760405162461bcd60e51b81526004016103b6906147c4565b61015f546001600160a01b031663b5c5f6723384846040518463ffffffff1660e01b8152600401610ae8939291906145fe565b6001600160a01b038116331461124c5760405162461bcd60e51b815260206004820152602f60248201527f416363657373436f6e74726f6c3a2063616e206f6e6c792072656e6f756e636560448201526e103937b632b9903337b91039b2b63360891b60648201526084016103b6565b61125682826133ee565b5050565b306001600160a01b037f00000000000000000000000000000000000000000000000000000000000000001614156112a35760405162461bcd60e51b81526004016103b69061472c565b7f00000000000000000000000000000000000000000000000000000000000000006001600160a01b03166112d5613455565b6001600160a01b0316146112fb5760405162461bcd60e51b81526004016103b690614778565b61130481613471565b60408051600080825260208201909252611320918391906134a5565b50565b60975460ff166113455760405162461bcd60e51b81526004016103b6906146fe565b61135d600080516020614a1483398151915233612090565b611379576040516282b42960e81b815260040160405180910390fd5b61138161361f565b565b610162546040516358db2eef60e01b815260009182916001600160a01b03909116906358db2eef906113b9908690600401614545565b60206040518083038186803b1580156113d157600080fd5b505afa1580156113e5573d6000803e3d6000fd5b505050506040513d601f19601f82011682018060405250810190611409919061438f565b905060008111610e3c5761016260009054906101000a90046001600160a01b03166001600160a01b0316636ced0c926040518163ffffffff1660e01b815260040160206040518083038186803b158015610dff57600080fd5b60975460ff16156114855760405162461bcd60e51b81526004016103b6906147c4565b600260c95414156114a85760405162461bcd60e51b81526004016103b690614887565b600260c955610160546040516370a0823160e01b81526000916001600160a01b03808816926370a08231926114e1921690600401614545565b60206040518083038186803b1580156114f957600080fd5b505afa15801561150d573d6000803e3d6000fd5b505050506040513d601f19601f82011682018060405250810190611531919061438f565b905061154f33610160546001600160a01b0388811692911687613685565b6115598482614913565b610160546040516370a0823160e01b81526001600160a01b03888116926370a082319261158c9290911690600401614545565b60206040518083038186803b1580156115a457600080fd5b505afa1580156115b8573d6000803e3d6000fd5b505050506040513d601f19601f820116820180604052508101906115dc919061438f565b146115fa576040516301b2776960e11b815260040160405180910390fd5b610160546040516302f1515360e31b81526001600160a01b039091169063178a8a98906116319088908890889088906004016145d4565b600060405180830381600087803b15801561164b57600080fd5b505af115801561165f573d6000803e3d6000fd5b5050600160c95550505050505050565b60975460ff16156116925760405162461bcd60e51b81526004016103b6906147c4565b600260c95414156116b55760405162461bcd60e51b81526004016103b690614887565b600260c95561015f546001600160a01b0316630efe6a8b3384846040518463ffffffff1660e01b81526004016116ed939291906145fe565b600060405180830381600087803b15801561170757600080fd5b505af115801561171b573d6000803e3d6000fd5b505061015f54604051637d21c96760e01b815260048101869052600093506001600160a01b039091169150637d21c9679060240160806040518083038186803b15801561176757600080fd5b505afa15801561177b573d6000803e3d6000fd5b505050506040513d601f19601f8201168201806040525081019061179f919061444b565b93505050506117c66117ae3390565b61015f546001600160a01b0384811692911685613685565b5050600160c95550565b60975460ff16156117f35760405162461bcd60e51b81526004016103b6906147c4565b336001600160a01b0316816001600160a01b0316638da5cb5b6040518163ffffffff1660e01b815260040160206040518083038186803b15801561183657600080fd5b505afa15801561184a573d6000803e3d6000fd5b505050506040513d601f19601f8201168201806040525081019061186e9190614028565b6001600160a01b031614611894576040516282b42960e81b815260040160405180910390fd5b6101625460405163d32b03eb60e01b81526001600160a01b039091169063d32b03eb90610bdf908490600401614545565b60975460ff16156118e85760405162461bcd60e51b81526004016103b6906147c4565b6118f182611a20565b6001600160a01b03166379cc679033836040518363ffffffff1660e01b815260040161191e9291906145bb565b600060405180830381600087803b15801561193857600080fd5b505af115801561194c573d6000803e3d6000fd5b5050610161546001600160a01b0316915063c7cdd95d905033610ac8565b306001600160a01b037f00000000000000000000000000000000000000000000000000000000000000001614156119b35760405162461bcd60e51b81526004016103b69061472c565b7f00000000000000000000000000000000000000000000000000000000000000006001600160a01b03166119e5613455565b6001600160a01b031614611a0b5760405162461bcd60e51b81526004016103b690614778565b611a1482613471565b611256828260016134a5565b6101615460405163b17b658d60e01b8152600091829182916001600160a01b03169063b17b658d90611a56908790600401614545565b604080518083038186803b158015611a6d57600080fd5b505afa158015611a81573d6000803e3d6000fd5b505050506040513d601f19601f82011682018060405250810190611aa59190614349565b9150915081611ab5576000611ab7565b805b949350505050565b60975460ff1615611ae25760405162461bcd60e51b81526004016103b6906147c4565b6101605460405163a6d083dd60e01b81526001600160a01b039091169063a6d083dd90610c76908b908b908b908b908b908b908b908b9060040161461f565b6000306001600160a01b037f00000000000000000000000000000000000000000000000000000000000000001614611bbc5760405162461bcd60e51b815260206004820152603860248201527f555550535570677261646561626c653a206d757374206e6f742062652063616c6044820152771b1959081d1a1c9bdd59da0819195b1959d85d1958d85b1b60421b60648201526084016103b6565b50600080516020614a5483398151915290565b61015f54604051639646c7b560e01b8152600481018490526001600160a01b0383811660248301526000921690639646c7b5906044015b60206040518083038186803b158015611c1e57600080fd5b505afa158015611c32573d6000803e3d6000fd5b505050506040513d601f19601f82011682018060405250810190610e3e919061438f565b60975460ff1615611c795760405162461bcd60e51b81526004016103b6906147c4565b610164546040516366cc185760e01b81526001600160a01b03909116906366cc185790610ae89085908590600401614559565b60975460ff1615611ccf5760405162461bcd60e51b81526004016103b6906147c4565b61016054604051638081cebd60e01b81526000916001600160a01b031690638081cebd90611d01908590600401614545565b60206040518083038186803b158015611d1957600080fd5b505afa158015611d2d573d6000803e3d6000fd5b505050506040513d601f19601f82011682018060405250810190611d519190614028565b90506001600160a01b038116611d7a57604051630309cb8760e51b815260040160405180910390fd5b336001600160a01b0316816001600160a01b0316638da5cb5b6040518163ffffffff1660e01b815260040160206040518083038186803b158015611dbd57600080fd5b505afa158015611dd1573d6000803e3d6000fd5b505050506040513d601f19601f82011682018060405250810190611df59190614028565b6001600160a01b031614611e1b576040516282b42960e81b815260040160405180910390fd5b61016054604051632428289760e11b81526001600160a01b0390911690634850512e90610ae89085906000908190600401614573565b60975460ff1615611e745760405162461bcd60e51b81526004016103b6906147c4565b611e8c600080516020614abb83398151915233612090565b611ea8576040516282b42960e81b815260040160405180910390fd5b6113816136dd565b60975460ff1615611ed35760405162461bcd60e51b81526004016103b6906147c4565b336001600160a01b0316816001600160a01b0316638da5cb5b6040518163ffffffff1660e01b815260040160206040518083038186803b158015611f1657600080fd5b505afa158015611f2a573d6000803e3d6000fd5b505050506040513d601f19601f82011682018060405250810190611f4e9190614028565b6001600160a01b031614611f74576040516282b42960e81b815260040160405180910390fd5b61016254604051632701486360e11b81526001600160a01b0390911690634e0290c690610bdf908490600401614545565b60975460ff1615611fc85760405162461bcd60e51b81526004016103b6906147c4565b600260c9541415611feb5760405162461bcd60e51b81526004016103b690614887565b600260c955610163546001600160a01b031663bf6eac2f3384846040518463ffffffff1660e01b815260040161202393929190614597565b600060405180830381600087803b15801561203d57600080fd5b505af1158015612051573d6000803e3d6000fd5b5050505061208761205f3390565b610163546001600160a01b03168361207686611a20565b6001600160a01b0316929190613685565b5050600160c955565b60009182526065602090815260408084206001600160a01b0393909316845291905290205460ff1690565b60975460ff16156120de5760405162461bcd60e51b81526004016103b6906147c4565b6101625460405163250bb55d60e01b81526001600160a01b039091169063250bb55d90349061211f908c908c908c908c908c908c908c908c9060040161461f565b6000604051808303818588803b15801561213857600080fd5b505af115801561214c573d6000803e3d6000fd5b50505050505050505050505050565b60975460ff161561217e5760405162461bcd60e51b81526004016103b6906147c4565b600260c95414156121a15760405162461bcd60e51b81526004016103b690614887565b600260c95561016254604051630e76c71b60e21b81526001600160a01b03909116906339db1c6c906121d990879087906004016145bb565b60206040518083038186803b1580156121f157600080fd5b505afa158015612205573d6000803e3d6000fd5b505050506040513d601f19601f82011682018060405250810190612229919061432d565b1561228d57604051630852cd8d60e31b8152600481018490526001600160a01b038516906342966c6890602401600060405180830381600087803b15801561227057600080fd5b505af1158015612284573d6000803e3d6000fd5b50505050612392565b610162546040516379be588b60e11b81526001600160a01b039091169063f37cb116906122be908790600401614545565b60206040518083038186803b1580156122d657600080fd5b505afa1580156122ea573d6000803e3d6000fd5b505050506040513d601f19601f8201168201806040525081019061230e919061432d565b61232a576040516282b42960e81b815260040160405180910390fd5b61016254604051632142170760e11b81526001600160a01b03868116926342842e0e9261235f92339216908890600401614597565b600060405180830381600087803b15801561237957600080fd5b505af115801561238d573d6000803e3d6000fd5b505050505b610162546040516320bc20cb60e21b81526001600160a01b03909116906382f0832c906123c99087908790879087906004016145d4565b600060405180830381600087803b1580156123e357600080fd5b505af11580156123f7573d6000803e3d6000fd5b5050600160c955505050505050565b61016354604051634e76bf3b60e11b81526000916001600160a01b031690639ced7e7690611c069086908690600401614559565b60975460ff161561245d5760405162461bcd60e51b81526004016103b6906147c4565b610164546001600160a01b03166360829f8a33610ac8565b60975460ff16156124985760405162461bcd60e51b81526004016103b6906147c4565b610160546040516371f99e1160e11b8152600481018590526001600160a01b038481166024830152604482018490529091169063e3f33c229034906064016000604051808303818588803b15801561113c57600080fd5b6101615460405163309ba0eb60e21b81526000916001600160a01b03169063c26e83ac90611c0690869086906004016145bb565b600054610100900460ff1661253e5760005460ff1615612542565b303b155b61255e5760405162461bcd60e51b81526004016103b6906147ee565b600054610100900460ff16158015612580576000805461ffff19166101011790555b612588613735565b612593600033613819565b6125ab600080516020614a7483398151915233613819565b61015f80546001600160a01b03199081166001600160a01b038a8116919091179092556101608054821689841617905561016180548216888416179055610162805482168784161790556101638054821685841617905561016480549091169185169190911790558015612625576000805461ff00191690555b50505050505050565b61016454604051634e76bf3b60e11b81526000916001600160a01b031690639ced7e7690611c069086908690600401614559565b60975460ff16156126855760405162461bcd60e51b81526004016103b6906147c4565b600260c95414156126a85760405162461bcd60e51b81526004016103b690614887565b600260c955610160546040516370a0823160e01b81526000916001600160a01b03808616926370a08231926126e1921690600401614545565b60206040518083038186803b1580156126f957600080fd5b505afa15801561270d573d6000803e3d6000fd5b505050506040513d601f19601f82011682018060405250810190612731919061438f565b905061274f33610160546001600160a01b0386811692911685613685565b6127598282614913565b610160546040516370a0823160e01b81526001600160a01b03868116926370a082319261278c9290911690600401614545565b60206040518083038186803b1580156127a457600080fd5b505afa1580156127b8573d6000803e3d6000fd5b505050506040513d601f19601f820116820180604052508101906127dc919061438f565b146127fa576040516301b2776960e11b815260040160405180910390fd5b610161546001600160a01b03166388e1b8cb3385856040518463ffffffff1660e01b815260040161282d93929190614597565b600060405180830381600087803b15801561284757600080fd5b505af115801561285b573d6000803e3d6000fd5b5050600160c9555050505050565b6000828152606560205260409020600101546128858133613304565b61118183836133ee565b60975460ff16156128b25760405162461bcd60e51b81526004016103b6906147c4565b6101625460405163c453d15560e01b81526000916001600160a01b03169063c453d155906128e4908690600401614545565b60206040518083038186803b1580156128fc57600080fd5b505afa158015612910573d6000803e3d6000fd5b505050506040513d601f19601f820116820180604052508101906129349190614028565b6001600160a01b03161461295b57604051630309cb8760e51b815260040160405180910390fd5b336001600160a01b0316816001600160a01b0316638da5cb5b6040518163ffffffff1660e01b815260040160206040518083038186803b15801561299e57600080fd5b505afa1580156129b2573d6000803e3d6000fd5b505050506040513d601f19601f820116820180604052508101906129d69190614028565b6001600160a01b0316146129fc576040516282b42960e81b815260040160405180910390fd5b6101625460405163c9b22e0760e01b81526001600160a01b039091169063c9b22e0790610ae89085908590600401614559565b60975460ff1615612a525760405162461bcd60e51b81526004016103b6906147c4565b61015f546001600160a01b031663018ee9b733610bc1565b60975460ff1615612a8d5760405162461bcd60e51b81526004016103b6906147c4565b600260c9541415612ab05760405162461bcd60e51b81526004016103b690614887565b600260c9556000612ac185856124ef565b9050838115612b7557612b683361016160009054906101000a90046001600160a01b03166001600160a01b031663da09c72c6040518163ffffffff1660e01b815260040160206040518083038186803b158015612b1d57600080fd5b505afa158015612b31573d6000803e3d6000fd5b505050506040513d601f19601f82011682018060405250810190612b559190614028565b612b5f89896124ef565b6120768a611a20565b612b72828661496a565b90505b612b7e86611a20565b6001600160a01b03166379cc679033836040518363ffffffff1660e01b8152600401612bab9291906145bb565b600060405180830381600087803b158015612bc557600080fd5b505af1158015612bd9573d6000803e3d6000fd5b50506101605460405163318242a760e01b81526001600160a01b038a8116600483015260248201869052604482018a9052888116606483015260848201889052909116925063318242a7915060a401600060405180830381600087803b158015612c4257600080fd5b505af1158015612c56573d6000803e3d6000fd5b5050600160c9555050505050505050565b610160546040516358db2eef60e01b815260009182916001600160a01b03909116906358db2eef90612c9d908790600401614545565b60206040518083038186803b158015612cb557600080fd5b505afa158015612cc9573d6000803e3d6000fd5b505050506040513d601f19601f82011682018060405250810190612ced919061438f565b90506000808211612d845761016060009054906101000a90046001600160a01b03166001600160a01b0316636ced0c926040518163ffffffff1660e01b815260040160206040518083038186803b158015612d4757600080fd5b505afa158015612d5b573d6000803e3d6000fd5b505050506040513d601f19601f82011682018060405250810190612d7f919061438f565b612d86565b815b9050620f4240612d96828661494b565b612da0919061492b565b95945050505050565b60975460ff1615612dcc5760405162461bcd60e51b81526004016103b6906147c4565b610163546040516366cc185760e01b81526001600160a01b03909116906366cc185790610ae89085908590600401614559565b60975460ff1615612e225760405162461bcd60e51b81526004016103b6906147c4565b61016054604051638081cebd60e01b81526000916001600160a01b031690638081cebd90612e54908690600401614545565b60206040518083038186803b158015612e6c57600080fd5b505afa158015612e80573d6000803e3d6000fd5b505050506040513d601f19601f82011682018060405250810190612ea49190614028565b6001600160a01b031614612ecb57604051630309cb8760e51b815260040160405180910390fd5b336001600160a01b0316816001600160a01b0316638da5cb5b6040518163ffffffff1660e01b815260040160206040518083038186803b158015612f0e57600080fd5b505afa158015612f22573d6000803e3d6000fd5b505050506040513d601f19601f82011682018060405250810190612f469190614028565b6001600160a01b031614612f6c576040516282b42960e81b815260040160405180910390fd5b61016054604051632428289760e11b81526001600160a01b0390911690634850512e90610ae89085908590600190600401614573565b60975460ff1615612fc55760405162461bcd60e51b81526004016103b6906147c4565b6101625460405163c453d15560e01b81526000916001600160a01b03169063c453d15590612ff7908590600401614545565b60206040518083038186803b15801561300f57600080fd5b505afa158015613023573d6000803e3d6000fd5b505050506040513d601f19601f820116820180604052508101906130479190614028565b90506001600160a01b03811661307057604051630309cb8760e51b815260040160405180910390fd5b336001600160a01b0316816001600160a01b0316638da5cb5b6040518163ffffffff1660e01b815260040160206040518083038186803b1580156130b357600080fd5b505afa1580156130c7573d6000803e3d6000fd5b505050506040513d601f19601f820116820180604052508101906130eb9190614028565b6001600160a01b031614613111576040516282b42960e81b815260040160405180910390fd5b61016254604051632b9503a360e01b81526001600160a01b0390911690632b9503a390610ae8908590600401614545565b610160546040805163eb6d3a1160e01b815290516000926001600160a01b03169163eb6d3a11916004808301926020929190829003018186803b15801561318857600080fd5b505afa15801561319c573d6000803e3d6000fd5b505050506040513d601f19601f820116820180604052508101906131c09190614028565b905090565b60975460ff16156131e85760405162461bcd60e51b81526004016103b6906147c4565b600260c954141561320b5760405162461bcd60e51b81526004016103b690614887565b600260c955610164546001600160a01b031663bf6eac2f3384846040518463ffffffff1660e01b815260040161324393929190614597565b600060405180830381600087803b15801561325d57600080fd5b505af1158015613271573d6000803e3d6000fd5b5050505061208761327f3390565b6101645461015f5460408051633d1cd2c360e21b815290516001600160a01b03938416938793169163f4734b0c916004808301926020929190829003018186803b1580156132cc57600080fd5b505afa1580156132e0573d6000803e3d6000fd5b505050506040513d601f19601f820116820180604052508101906120769190614028565b61330e8282612090565b61125657613326816001600160a01b03166014613823565b613331836020613823565b6040516020016133429291906144d6565b60408051601f198184030181529082905262461bcd60e51b82526103b6916004016146cb565b6133728282612090565b6112565760008281526065602090815260408083206001600160a01b03851684529091529020805460ff191660011790556133aa3390565b6001600160a01b0316816001600160a01b0316837f2f8788117e7eff1d82e926ec794901d17c78024a50270940304540a733656f0d60405160405180910390a45050565b6133f88282612090565b156112565760008281526065602090815260408083206001600160a01b0385168085529252808320805460ff1916905551339285917ff6391f5c32d9c69d2a47ea670b442974b53935d1edc7fd64eb21e047a839171b9190a45050565b600080516020614a54833981519152546001600160a01b031690565b613489600080516020614a3483398151915233612090565b611320576040516282b42960e81b815260040160405180910390fd5b7f4910fdfa16fed3260ed0e7147f7cc6da11a60208b5b9406d12a635614ffd91435460ff16156134d85761118183613a05565b826001600160a01b03166352d1902d6040518163ffffffff1660e01b815260040160206040518083038186803b15801561351157600080fd5b505afa925050508015613541575060408051601f3d908101601f1916820190925261353e9181019061438f565b60015b6135a45760405162461bcd60e51b815260206004820152602e60248201527f45524331393637557067726164653a206e657720696d706c656d656e7461746960448201526d6f6e206973206e6f74205555505360901b60648201526084016103b6565b600080516020614a5483398151915281146136135760405162461bcd60e51b815260206004820152602960248201527f45524331393637557067726164653a20756e737570706f727465642070726f786044820152681a58589b195555525160ba1b60648201526084016103b6565b50611181838383613aa1565b60975460ff166136415760405162461bcd60e51b81526004016103b6906146fe565b6097805460ff191690557f5db9ee0a495bf2e6ff9c91a7834c1ba4fdd244a5e8aa4e537bd38aeae4b073aa335b60405161367b9190614545565b60405180910390a1565b611155846323b872dd60e01b8585856040516024016136a693929190614597565b60408051601f198184030181529190526020810180516001600160e01b03166001600160e01b031990931692909217909152613ac6565b60975460ff16156137005760405162461bcd60e51b81526004016103b6906147c4565b6097805460ff191660011790557f62e78cea01bee320cd4e420270b5ea74000d11b0c9f74754ebdbfc544b05a25861366e3390565b600054610100900460ff166137505760005460ff1615613754565b303b155b6137705760405162461bcd60e51b81526004016103b6906147ee565b600054610100900460ff16158015613792576000805461ffff19166101011790555b61379a613b98565b6137a2613bc7565b6137aa613bee565b6137b2613bc7565b6137bd600033613819565b6137d5600080516020614abb83398151915233613819565b6137ed600080516020614a1483398151915233613819565b613805600080516020614a3483398151915233613819565b8015611320576000805461ff001916905550565b6112568282613368565b6060600061383283600261494b565b61383d906002614913565b67ffffffffffffffff81111561386357634e487b7160e01b600052604160045260246000fd5b6040519080825280601f01601f19166020018201604052801561388d576020820181803683370190505b509050600360fc1b816000815181106138b657634e487b7160e01b600052603260045260246000fd5b60200101906001600160f81b031916908160001a905350600f60fb1b816001815181106138f357634e487b7160e01b600052603260045260246000fd5b60200101906001600160f81b031916908160001a905350600061391784600261494b565b613922906001614913565b90505b60018111156139b6576f181899199a1a9b1b9c1cb0b131b232b360811b85600f166010811061396457634e487b7160e01b600052603260045260246000fd5b1a60f81b82828151811061398857634e487b7160e01b600052603260045260246000fd5b60200101906001600160f81b031916908160001a90535060049490941c936139af816149ad565b9050613925565b508315610e3e5760405162461bcd60e51b815260206004820181905260248201527f537472696e67733a20686578206c656e67746820696e73756666696369656e7460448201526064016103b6565b6001600160a01b0381163b613a725760405162461bcd60e51b815260206004820152602d60248201527f455243313936373a206e657720696d706c656d656e746174696f6e206973206e60448201526c1bdd08184818dbdb9d1c9858dd609a1b60648201526084016103b6565b600080516020614a5483398151915280546001600160a01b0319166001600160a01b0392909216919091179055565b613aaa83613c1d565b600082511180613ab75750805b15611181576111558383613c5d565b6000613b1b826040518060400160405280602081526020017f5361666545524332303a206c6f772d6c6576656c2063616c6c206661696c6564815250856001600160a01b0316613d489092919063ffffffff16565b8051909150156111815780806020019051810190613b39919061432d565b6111815760405162461bcd60e51b815260206004820152602a60248201527f5361666545524332303a204552433230206f7065726174696f6e20646964206e6044820152691bdd081cdd58d8d9595960b21b60648201526084016103b6565b600054610100900460ff16613bbf5760405162461bcd60e51b81526004016103b69061483c565b611381613d57565b600054610100900460ff166113815760405162461bcd60e51b81526004016103b69061483c565b600054610100900460ff16613c155760405162461bcd60e51b81526004016103b69061483c565b611381613d85565b613c2681613a05565b6040516001600160a01b038216907fbc7cd75a20ee27fd9adebab32041f755214dbc6bffa90cc0225b39da2e5c2d3b90600090a250565b60606001600160a01b0383163b613cc55760405162461bcd60e51b815260206004820152602660248201527f416464726573733a2064656c65676174652063616c6c20746f206e6f6e2d636f6044820152651b9d1c9858dd60d21b60648201526084016103b6565b600080846001600160a01b031684604051613ce091906144ba565b600060405180830381855af49150503d8060008114613d1b576040519150601f19603f3d011682016040523d82523d6000602084013e613d20565b606091505b5091509150612da08282604051806060016040528060278152602001614a9460279139613db8565b6060611ab78484600085613df1565b600054610100900460ff16613d7e5760405162461bcd60e51b81526004016103b69061483c565b600160c955565b600054610100900460ff16613dac5760405162461bcd60e51b81526004016103b69061483c565b6097805460ff19169055565b60608315613dc7575081610e3e565b825115613dd75782518084602001fd5b8160405162461bcd60e51b81526004016103b691906146cb565b606082471015613e525760405162461bcd60e51b815260206004820152602660248201527f416464726573733a20696e73756666696369656e742062616c616e636520666f6044820152651c8818d85b1b60d21b60648201526084016103b6565b6001600160a01b0385163b613ea95760405162461bcd60e51b815260206004820152601d60248201527f416464726573733a2063616c6c20746f206e6f6e2d636f6e747261637400000060448201526064016103b6565b600080866001600160a01b03168587604051613ec591906144ba565b60006040518083038185875af1925050503d8060008114613f02576040519150601f19603f3d011682016040523d82523d6000602084013e613f07565b606091505b5091509150613f17828286613db8565b979650505050505050565b8035613f2d816149f0565b919050565b600082601f830112613f42578081fd5b81356020613f57613f52836148ef565b6148be565b80838252828201915082860187848660051b8901011115613f76578586fd5b855b85811015613f9457813584529284019290840190600101613f78565b5090979650505050505050565b600082601f830112613fb1578081fd5b81356020613fc1613f52836148ef565b80838252828201915082860187848660051b8901011115613fe0578586fd5b855b85811015613f9457813560ff81168114613ffa578788fd5b84529284019290840190600101613fe2565b60006020828403121561401d578081fd5b8135610e3e816149f0565b600060208284031215614039578081fd5b8151610e3e816149f0565b60008060408385031215614056578081fd5b8235614061816149f0565b91506020830135614071816149f0565b809150509250929050565b60008060008060008060c08789031215614094578182fd5b863561409f816149f0565b955060208701356140af816149f0565b945060408701356140bf816149f0565b935060608701356140cf816149f0565b925060808701356140df816149f0565b915060a08701356140ef816149f0565b809150509295509295509295565b60008060008060808587031215614112578384fd5b843561411d816149f0565b9350602085013561412d81614a05565b9250604085013561413d81614a05565b9150606085013561414d81614a05565b939692955090935050565b6000806040838503121561416a578182fd5b8235614175816149f0565b915060208381013567ffffffffffffffff80821115614192578384fd5b818601915086601f8301126141a5578384fd5b8135818111156141b7576141b76149da565b6141c9601f8201601f191685016148be565b915080825287848285010111156141de578485fd5b8084840185840137810190920192909252919491935090915050565b6000806040838503121561420c578182fd5b8235614217816149f0565b946020939093013593505050565b6000806000806080858703121561423a578182fd5b8435614245816149f0565b935060208501359250604085013561425c816149f0565b9396929550929360600135925050565b600080600080600080600080610100898b031215614288578586fd5b883567ffffffffffffffff8082111561429f578788fd5b6142ab8c838d01613fa1565b995060208b01359150808211156142c0578788fd5b6142cc8c838d01613f32565b985060408b01359150808211156142e1578788fd5b506142ee8b828c01613f32565b9650506142fd60608a01613f22565b945061430b60808a01613f22565b979a969950949793969560a0850135955060c08501359460e001359350915050565b60006020828403121561433e578081fd5b8151610e3e81614a05565b6000806040838503121561435b578182fd5b825161436681614a05565b6020840151909250614071816149f0565b600060208284031215614388578081fd5b5035919050565b6000602082840312156143a0578081fd5b5051919050565b600080604083850312156143b9578182fd5b823591506020830135614071816149f0565b6000602082840312156143dc578081fd5b81356001600160e01b031981168114610e3e578182fd5b600080600060608486031215614407578081fd5b833592506020840135614419816149f0565b929592945050506040919091013590565b6000806040838503121561443c578182fd5b50508035926020909101359150565b60008060008060808587031215614460578182fd5b845193506020850151925060408501519150606085015161414d816149f0565b6000815180845260208085019450808401835b838110156144af57815187529582019590820190600101614493565b509495945050505050565b600082516144cc818460208701614981565b9190910192915050565b76020b1b1b2b9b9a1b7b73a3937b61d1030b1b1b7bab73a1604d1b815260008351614508816017850160208801614981565b7001034b99036b4b9b9b4b733903937b6329607d1b6017918401918201528351614539816028840160208801614981565b01602801949350505050565b6001600160a01b0391909116815260200190565b6001600160a01b0392831681529116602082015260400190565b6001600160a01b039384168152919092166020820152901515604082015260600190565b6001600160a01b039384168152919092166020820152604081019190915260600190565b6001600160a01b03929092168252602082015260400190565b6001600160a01b039485168152602081019390935292166040820152606081019190915260800190565b6001600160a01b039390931683526020830191909152604082015260600190565b6101008082528951908201819052600090610120830190602090818d01845b8281101561465d57815160ff168552938301939083019060010161463e565b50505083820390840152614671818b614480565b90508281036040840152614685818a614480565b91505061469d60608301886001600160a01b03169052565b6001600160a01b03861660808301528460a08301528360c08301528260e08301529998505050505050505050565b60208152600082518060208401526146ea816040850160208701614981565b601f01601f19169190910160400192915050565b60208082526014908201527314185d5cd8589b194e881b9bdd081c185d5cd95960621b604082015260600190565b6020808252602c908201527f46756e6374696f6e206d7573742062652063616c6c6564207468726f7567682060408201526b19195b1959d85d1958d85b1b60a21b606082015260800190565b6020808252602c908201527f46756e6374696f6e206d7573742062652063616c6c6564207468726f7567682060408201526b6163746976652070726f787960a01b606082015260800190565b60208082526010908201526f14185d5cd8589b194e881c185d5cd95960821b604082015260600190565b6020808252602e908201527f496e697469616c697a61626c653a20636f6e747261637420697320616c72656160408201526d191e481a5b9a5d1a585b1a5e995960921b606082015260800190565b6020808252602b908201527f496e697469616c697a61626c653a20636f6e7472616374206973206e6f74206960408201526a6e697469616c697a696e6760a81b606082015260800190565b6020808252601f908201527f5265656e7472616e637947756172643a207265656e7472616e742063616c6c00604082015260600190565b604051601f8201601f1916810167ffffffffffffffff811182821017156148e7576148e76149da565b604052919050565b600067ffffffffffffffff821115614909576149096149da565b5060051b60200190565b60008219821115614926576149266149c4565b500190565b60008261494657634e487b7160e01b81526012600452602481fd5b500490565b6000816000190483118215151615614965576149656149c4565b500290565b60008282101561497c5761497c6149c4565b500390565b60005b8381101561499c578181015183820152602001614984565b838111156111555750506000910152565b6000816149bc576149bc6149c4565b506000190190565b634e487b7160e01b600052601160045260246000fd5b634e487b7160e01b600052604160045260246000fd5b6001600160a01b038116811461132057600080fd5b801515811461132057600080fdfe8803b79cf103fbbe05f367aebd7133df95e66e35cd2fd4354572749b340fa030a4254957378b1b029002037cdde9a929320dca7844d0cd60835508c4a5da7077360894a13ba1a3210667c828492db98dca3e2076cc3735a920a3ca505d382bbc9476379636bf56df3e6631bc65f1e572b6a1788c0fdd3a136b50ed1378fe4076416464726573733a206c6f772d6c6576656c2064656c65676174652063616c6c206661696c6564d45448057dd4bec91524a9aa1c58ba5873b99fee065c4fe61a84ea8374011cbaa2646970667358221220e5cd56e8e8fb8479b22a6ccfdf28515dd36b4eaa3d5b8a708cad2d6eba03ab2564736f6c63430008040033",
  "linkReferences": {},
  "deployedLinkReferences": {}
}